:020000040000FA
:0300000002089F54
:03003300020800C0
:10080000C0E0C0D075D000C00030FE07C2FED200EC
:10081000020898E5A3B44002D200E5147031E51057
:1008200024FE601024FE601024FC601124E8601295
:10083000241F7019D2FA805E8511A3803175A3FF41
:10084000802C75130075A3FF7514018049801FE586
:1008500014B4011FE51024E0701474082513F8A6E1
:10086000A375A3FF0513E5136407702A80007514B0
:10087000028023E514B4021EE51024E06009241868
:10088000700F85A311800A74082513F8A6A37514A8
:1008900000D2FA751400C2FFD000D0D0D0E0327878
:1008A0007FE4F6D8FD7581200208E6020970E49322
:1008B000A3F8E493A34003F68001F208DFF4802953
:1008C000E493A3F85407240CC8C333C4540F442042
:1008D000C8834004F456800146F6DFE4800B010231
:1008E00004081020408090092BE47E019360BCA393
:1008F000FF543F30E509541FFEE493A360010ECF7F
:1009000054C025E060A840B8E493A3FAE493A3F8A8
:10091000E493A3C8C582C8CAC583CAF0A3C8C58268
:10092000C8CAC583CADFE9DEE780BE0111A5080891
:100930000000000000000000C100011000011200D2
:100940000113000114000012099F1209A61209AD3B
:100950001209B41209BB12099512098B0209BFEBE7
:100960009FF5F0EA9E42F0E99D42F0E89C45F022B6
:10097000120947C280D2AF7FAA12097E80F930FAED
:10098000FDC2FA8FA330F9FDD2FA2275A21743A156
:100990004043F80D22758E087589204388402275E2
:1009A00097DE7597AD2275A45175D40F2275A513E6
:1009B00075D5102275E34075E10322E4F5A92243C1
:0309C0009810226A
:00000001FF
