:020000040000FA
:0300000002089F54
:03003300020800C0
:10080000C0E0C0D075D000C00030FE07C2FED200EC
:10081000020898E5A3B44002D200E5187031E51053
:1008200024FE601024FE601024FC601124E8601295
:10083000241F7019D2FA805E8511A3803175A3FF41
:10084000802C75170075A3FF7518018049801FE57E
:1008500018B4011FE51024E0701474082517F8A6D9
:10086000A375A3FF0517E5176407702A80007518A4
:10087000028023E518B4021EE51024E06009241864
:10088000700F85A311800A74082517F8A6A37518A0
:1008900000D2FA751800C2FFD000D0D0D0E0327874
:1008A0007FE4F6D8FD7581200208E602092BE49367
:1008B000A3F8E493A34003F68001F208DFF4802953
:1008C000E493A3F85407240CC8C333C4540F442042
:1008D000C8834004F456800146F6DFE4800B010231
:1008E0000408102040809009C8E47E019360BCA3F6
:1008F000FF543F30E509541FFEE493A360010ECF7F
:1009000054C025E060A840B8E493A3FAE493A3F8A8
:10091000E493A3C8C582C8CAC583CAF0A3C8C58268
:10092000C8CAC583CADFE9DEE780BE1209E4C28017
:10093000D2AFE4FF120A1FE4FF120A1F12098E7FD2
:1009400001120A1FE4FF120A1F12098E7F08120A01
:100950001F7FFC120A1F12098E7F12120A1FE4FF6A
:10096000120A1F12098E7F13120A1F7F10120A1F0C
:1009700012098E7F14120A1FE4FF120A1F12098E39
:100980001209FC8F12D2FAE4FF120A1F80F27516C8
:100990004075150D751403751300E4FFFEFDFCABE7
:1009A00016AA15A914A813D3120A0E401AE5162484
:1009B000FFF516E51534FFF515E51434FFF514E5DC
:1009C0001334FFF51380D3220111A508080000009D
:1009D0000000000000C1000110000112000117001A
:1009E00001180000120A3D120A44120A4B120A5260
:1009F000120A59120A33120A29020A5D30FAFD7FDF
:100A000080120A1FE4FF120A1FC2FAAFA322EB9F53
:100A1000F5F0EA9E42F0E99D42F0E89C45F0223074
:100A2000FAFDC2FA8FA3D2FA2275A21743A140435E
:100A3000F80D22758E08758920438840227597DE4F
:100A40007597AD2275A45175D40F2275A51375D570
:100A5000102275E34075E10322E4F5A922439810C2
:010A60002273
:00000001FF
