:020000040000FA
:0300000002093DB5
:030023000209C906
:03003300020800C0
:10080000C0E0C0D075D000C00030FE07C2FED201EB
:10081000020898E5A3B44002D201E5227031E51444
:1008200024FE601024FE601024FC601124E8601295
:10083000241F7019D2FA805E8515A3803175A3FF3D
:10084000802C75210075A3FF7522018049801FE56A
:1008500022B4011FE51424E07014740C2521F8A6BD
:10086000A375A3FF0521E5216407702A8000752286
:10087000028023E522B4021EE51424E06009241856
:10088000700F85A315800A740C2521F8A6A3752284
:1008900000D2FA752200C2FFD000D0D0D0E03212D0
:1008A0000AF8C280D2AFE4F50CF50D120B1C120A47
:1008B00095750C01E4F50D120B1C120A95750C08C8
:1008C000750DFC120B1C120A95750C11750D60123A
:1008D0000B1C120A95750C12750D06120B1C120AD0
:1008E00095750C13750DC0120B1C120A95750C141E
:1008F000750D20120B1C120A95E4F50BF50AF5098B
:10090000F508D299750B01F50AF509F508D2997524
:100910000B02F50AF509F508D299750B03F50AF5EE
:1009200009F508D299750B04F50AF509F508D2996D
:10093000750B05F50AF509F508D29980BC787FE4B6
:10094000F6D8FD75812602098402089FE493A3F876
:10095000E493A34003F68001F208DFF48029E493D6
:10096000A3F85407240CC8C333C4540F4420C883CD
:100970004004F456800146F6DFE4800B01020408CF
:1009800010204080900ACDE47E019360BCA3FF5408
:100990003F30E509541FFEE493A360010ECF54C01D
:1009A00025E060A840B8E493A3FAE493A3F8E493A5
:1009B000A3C8C582C8CAC583CAF0A3C8C582C8CAAD
:1009C000C583CADFE9DEE780BEC0E0C083C082C065
:1009D000D075D000C000C004C005C006C007309864
:1009E00002C298309951C299AC08AD09AE0AAF0B5A
:1009F000120A5B0A1B000000000A20000000010A26
:100A000025000000020A2A000000030A2F0000004F
:100A1000040A340000000500000A377599018017A8
:100A20007599238012759934800D759956800875D3
:100A30009978800375999AD007D006D005D004D054
:100A400000D0D0D082D083D0E032EB9FF5F0EA9E88
:100A500042F0E99D42F0E89C45F022D083D082E448
:100A6000937012740193700DA3A393F8740193F51E
:100A7000828883E4737402936C70127403936D70B4
:100A80000C7404936E70067405936F60DDA3A3A3CA
:100A9000A3A3A380CAE4751F04F51EF51DF51CE48D
:100AA000FFFEFDFCAB1FAA1EA91DA81CD3120A4AFB
:100AB000401AE51F24FFF51FE51E34FFF51EE51D56
:100AC00034FFF51DE51C34FFF51C80D3220115A56C
:100AD000080C0000000000000000C1010114000328
:100AE000160000000319000000040800000000C107
:100AF0000001210001220000120B7A120B81120B5F
:100B000088120B8F120B96120B3F120B66120B7092
:100B1000120B5C120B52120B9E020B9A30FAFDC2A2
:100B2000AEC2FAE4FF740C2FF8E6F5A330F9FD0F1E
:100B3000BF02F2C2FF30FFFDC2FFD2FAD2AE22AF37
:100B4000885388AF758D96EF5440FEEF54104E4297
:100B5000882275A23443A14043F80D22758E597541
:100B6000892043884022E5C8540453C8FB42C82268
:100B7000E59154045391FB4291227597DE7597AD30
:100B80002275A45175D40F2275A51375D510227541
:100B9000E34075E10322E4F5A92275A8D022439829
:020BA000102221
:00000001FF
