:020000040000FA
:03000000020BCE22
:03002300020AD4FA
:03002B00020D3B88
:03005300020800A0
:10080000C0E0C0F0C083C082C0D075D000C000C0BE
:1008100001C002C003C004C005C006C007750B00BC
:10082000750A00750900750800C2EDAFBEE48F0FB0
:10083000F50EF50DF50CAFBD8F13F512F511F51092
:10084000AFBDAEBE8F178E16F515F514FF7E01FDF8
:10085000FCAB0FAA0EA90DA80C12097DA804A905CE
:10086000AA06AB07AFBDE4FCFDFEEB2FFFEE3AFEA0
:10087000ED39FDEC38FCE5242FF524E5233EF52386
:10088000E5223DF522E5213CF521E52615267002FD
:100890001525E5264525704DF5257526107B10FAA2
:1008A000F9F8AF24AE23AD22AC21120A088F0B8ECB
:1008B0000A8D098C087524007523007522007521A6
:1008C00000E47FE47E0CFDFCAB0BAA0AA909A80892
:1008D00012097DE47BFC7A0FF9F8120A088F2F8E3B
:1008E0002E8D2D8C2CE52664104525700C75370354
:1008F000F536F535F534752701E526640E45257086
:100900000C753702F536F535F534752701E52664A3
:100910000C4525700C753701F536F535F53475271E
:1009200001E526640A4525700BF537F536F535F5F2
:1009300034752701E52664084525700C753704F5E4
:1009400036F535F534752701C3E5269408E5259479
:1009500000500F7537087536007535007534007511
:100960002700D007D006D005D004D003D002D00194
:10097000D000D0D0D082D083D0F0D0E032E88FF059
:10098000A4CC8BF0A42CFCE98EF0A42CFC8AF0ED16
:10099000A42CFCEA8EF0A4CDA8F08BF0A42DCC38CA
:1009A00025F0FDE98FF0A42CCD35F0FCEB8EF0A402
:1009B000FEA9F0EB8FF0A4CFC5F02ECD39FEE43CBC
:1009C000FCEAA42DCE35F0FDE43CFC2275F0087560
:1009D0008200EF2FFFEE33FECD33CDCC33CCC5827A
:1009E00033C5829BED9AEC99E58298400CF582EE36
:1009F0009BFEED9AFDEC99FC0FD5F0D6E4CEFBE41E
:100A0000CDFAE4CCF9A88222B800C1B90059BA00E5
:100A10002DEC8BF084CFCECDFCE5F0CBF97818EF40
:100A20002FFFEE33FEED33FDEC33FCEB33FB10D741
:100A300003994004EB99FB0FD8E5E4F9FA22781802
:100A4000EF2FFFEE33FEED33FDEC33FCC933C9105D
:100A5000D7059BE99A4007EC9BFCE99AF90FD8E08F
:100A6000E4C9FAE4CCFB2275F010EF2FFFEE33FE61
:100A7000ED33FDCC33CCC833C810D7079BEC9AE8D4
:100A800099400AED9BFDEC9AFCE899F80FD5F0DA55
:100A9000E4CDFBE4CCFAE4C8F922D083D082E4931D
:100AA0007012740193700DA3A393F8740193F582EF
:100AB0008883E4737402936C70127403936D700CEA
:100AC0007404936E70067405936F60DDA3A3A3A3F3
:100AD000A3A380CAC0E0C0F0C083C082C0D075D0DC
:100AE00000C000C001C002C003C004C005C006C0F1
:100AF00007309805C298859928209903020BB3C244
:100B000099AC34AD35AE36AF37120A9A0B340000CB
:100B100000000B44000000010B5D000000020B769A
:100B2000000000030B98000000040BAB000000085D
:100B300000000BADE47B0AFAF9F8AF2FAE2EAD2D15
:100B4000AC2C804AE47B0AFAF9F8AF2FAE2EAD2D1B
:100B5000AC2C120A08E47B0AFAF9F88031E47B64D1
:100B6000FAF9F8AF2FAE2EAD2DAC2C120A08E47BAB
:100B70000AFAF9F88018E47BE87A03F9F8AF2FAEA7
:100B80002EAD2DAC2C120A08E47B0AFAF9F8120AF1
:100B900008EB2430F52B8003752B2CD20175370818
:100BA0007536007535007534008002C201300103CE
:100BB000852B99D007D006D005D004D003D002D021
:100BC00001D000D0D0D082D083D0F0D0E032787F76
:100BD000E4F6D8FD758178020C15020CB1E493A3FC
:100BE000F8E493A34003F68001F208DFF48029E4DF
:100BF00093A3F85407240CC8C333C4540F4420C82B
:100C0000834004F456800146F6DFE4800B010204C1
:100C10000810204080900C5AE47E019360BCA3FF32
:100C2000543F30E509541FFEE493A360010ECF54F6
:100C3000C025E060A840B8E493A3FAE493A3F8E4E5
:100C400093A3C8C582C8CAC583CAF0A3C8C582C851
:100C5000CAC583CADFE9DEE780BE041800000000D1
:100C6000C100013800012900012A000127010128E3
:100C700000043400000006012B00C1010430000014
:100C800008000421000000000225001000120D1AC7
:100C9000120CFC120D06120D21120CEC120D2F126B
:100CA0000D33120CC6120CD9120D10120D37020D95
:100CB00028120C8DC280D2A1D2AFE527B401FBE48B
:100CC000F527D29980F4AF885388AF758D96EF548D
:100CD00040FEEF54104E428822E5C8540453C8FB2E
:100CE00075CBFF75CA3443C80442C822E4F5BB750E
:100CF000BCF975B38153E8F843E8C22275A41075B6
:100D0000F1FE75D4012275A51075F27F75D590227C
:100D1000758E08758920438840227597DE7597ADDA
:100D20002275E34075E1012275E60875A8902275E9
:0C0D3000D10822E4F5A9224398102232D9
:00000001FF
