:020000040000FA
:03000000020B6090
:03002300020A6668
:03002B00020CCDF7
:0300530002095748
:10080000E88FF0A4CC8BF0A42CFCE98EF0A42CFC97
:100810008AF0EDA42CFCEA8EF0A4CDA8F08BF0A415
:100820002DCC3825F0FDE98FF0A42CCD35F0FCEB74
:100830008EF0A4FEA9F0EB8FF0A4CFC5F02ECD3939
:10084000FEE43CFCEAA42DCE35F0FDE43CFC227530
:10085000F008758200EF2FFFEE33FECD33CDCC33A1
:10086000CCC58233C5829BED9AEC99E58298400C09
:10087000F582EE9BFEED9AFDEC99FC0FD5F0D6E4E7
:10088000CEFBE4CDFAE4CCF9A88222B800C1B900CD
:1008900059BA002DEC8BF084CFCECDFCE5F0CBF92E
:1008A0007818EF2FFFEE33FEED33FDEC33FCEB3326
:1008B000FB10D703994004EB99FB0FD8E5E4F9FA54
:1008C000227818EF2FFFEE33FEED33FDEC33FCC939
:1008D00033C910D7059BE99A4007EC9BFCE99AF9CC
:1008E0000FD8E0E4C9FAE4CCFB2275F010EF2FFF3B
:1008F000EE33FEED33FDCC33CCC833C810D7079BA5
:10090000EC9AE899400AED9BFDEC9AFCE899F80F07
:10091000D5F0DAE4CDFBE4CCFAE4C8F922D083D0F8
:1009200082E4937012740193700DA3A393F8740181
:1009300093F5828883E4737402936C70127403934A
:100940006D700C7404936E70067405936F60DDA374
:10095000A3A3A3A3A380CAC0E0C0F0C083C082C089
:10096000D075D000C000C001C002C003C004C005E3
:10097000C006C007751300751200751100751000D0
:10098000C2EDE526152670021525E5264525703EA3
:10099000F525752610AFBEEFFEADBD7C00E42DFF42
:1009A000EC3EFEE48F138E12F511F5107FC07E121F
:1009B000FDAB13AA12A911A810120800E47BFF7A5C
:1009C0001FF9F812088B8F2F8E2E8D2D8C2CE5267B
:1009D00064104525700C753703F536F535F534751B
:1009E0002701E526640E4525700C753702F536F5AE
:1009F00035F534752701E526640C4525700C7537EF
:100A000001F536F535F534752701E526640A4525E7
:100A1000700BF537F536F535F534752701E52664A5
:100A2000084525700C753704F536F535F53475270E
:100A300001C3E5269408E5259400500F7537087525
:100A40003600753500753400752700D007D006D004
:100A500005D004D003D002D001D000D0D0D082D0B5
:100A600083D0F0D0E032C0E0C0F0C083C082C0D0FC
:100A700075D000C000C001C002C003C004C005C0E2
:100A800006C007309805C298859928209903020B63
:100A900045C299AC34AD35AE36AF3712091D0AC622
:100AA000000000000AD6000000010AEF000000026A
:100AB0000B08000000030B2A000000040B3D00009F
:100AC000000800000B3FE47B0AFAF9F8AF2FAE2EC6
:100AD000AD2DAC2C804AE47B0AFAF9F8AF2FAE2E8C
:100AE000AD2DAC2C12088BE47B0AFAF9F88031E4C6
:100AF0007B64FAF9F8AF2FAE2EAD2DAC2C12088B1B
:100B0000E47B0AFAF9F88018E47BE87A03F9F8AF95
:100B10002FAE2EAD2DAC2C12088BE47B0AFAF9F81F
:100B200012088BEB2430F52B8003752B2CD201752A
:100B300037087536007535007534008002C2013003
:100B40000103852B99D007D006D005D004D003D05F
:100B500002D001D000D0D0D082D083D0F0D0E0320B
:100B6000787FE4F6D8FD758178020BA7020C43E488
:100B700093A3F8E493A34003F68001F208DFF48026
:100B800029E493A3F85407240CC8C333C4540F4476
:100B900020C8834004F456800146F6DFE4800B0150
:100BA00002040810204080900BECE47E019360BCAE
:100BB000A3FF543F30E509541FFEE493A360010EE8
:100BC000CF54C025E060A840B8E493A3FAE493A30F
:100BD000F8E493A3C8C582C8CAC583CAF0A3C8C530
:100BE00082C8CAC583CADFE9DEE780BE0408000008
:100BF0000000C100013800012900012A000127017D
:100C0000012800043400000006012B00C10104305B
:100C1000000008000421000000000225001000125E
:100C20000CAC120C8E120C98120CB3120C7E120C1F
:100C3000C1120CC5120C58120C6B120CA2120CC96A
:100C4000020CBA120C1FC280D2A1D2AFE527B401A8
:100C5000FBE4F527D29980F4AF885388AF758D9661
:100C6000EF5440FEEF54104E428822E5C85404531E
:100C7000C8FB75CBFF75CA3443C80442C822E4F5EB
:100C8000BB75BCF975B38153E8F843E8C22275A47B
:100C90001075F1FC75D4032275A51075F27F75D51A
:100CA0009022758E08758920438840227597DE75DD
:100CB00097AD2275E34075E1012275E60875A890AD
:0E0CC0002275D12822E4F5A922439810223291
:00000001FF
