:020000040000FA
:03000000020A31C0
:03002300020BA22B
:03002B00020C02C2
:0300530002092E71
:10080000E88FF0A4CC8BF0A42CFCE98EF0A42CFC97
:100810008AF0EDA42CFCEA8EF0A4CDA8F08BF0A415
:100820002DCC3825F0FDE98FF0A42CCD35F0FCEB74
:100830008EF0A4FEA9F0EB8FF0A4CFC5F02ECD3939
:10084000FEE43CFCEAA42DCE35F0FDE43CFC227530
:10085000F008758200EF2FFFEE33FECD33CDCC33A1
:10086000CCC58233C5829BED9AEC99E58298400C09
:10087000F582EE9BFEED9AFDEC99FC0FD5F0D6E4E7
:10088000CEFBE4CDFAE4CCF9A88222B800C1B900CD
:1008900059BA002DEC8BF084CFCECDFCE5F0CBF92E
:1008A0007818EF2FFFEE33FEED33FDEC33FCEB3326
:1008B000FB10D703994004EB99FB0FD8E5E4F9FA54
:1008C000227818EF2FFFEE33FEED33FDEC33FCC939
:1008D00033C910D7059BE99A4007EC9BFCE99AF9CC
:1008E0000FD8E0E4C9FAE4CCFB2275F010EF2FFF3B
:1008F000EE33FEED33FDCC33CCC833C810D7079BA5
:10090000EC9AE899400AED9BFDEC9AFCE899F80F07
:10091000D5F0DAE4CDFBE4CCFAE4C8F922EB9FF59C
:10092000F0EA9E42F0E99D42F0E89C45F022C0E0EA
:10093000C0F0C083C082C0D075D000C000C001C06C
:1009400002C003C004C005C006C007755A0075592F
:1009500000755800755700C2EDAFBEE48F5EF55DBF
:10096000F55CF55BAFBD8F62F561F560F55FAFBD1E
:10097000AEBE8F668E65F564F563FF7E01FDFCAB50
:100980005EAA5DA95CA85B120800A804A905AA06D6
:10099000AB07AFBDE4FCFDFEEB2FFFEE3AFEED39F9
:1009A000FDEC38FCE50B2FF50BE50A3EF50AE509F1
:1009B0003DF509E5083CF508E50D150D7002150C2F
:1009C000E50D450C7050750C08F50DFB7A08F9F82B
:1009D000AF0BAE0AAD09AC0812088B8F5A8E598D39
:1009E000588C57750B00750A00750900750800E4EE
:1009F0007FE47E0CFDFCAB5AAA59A958A8571208EF
:100A000000E47BFC7A0FF9F812088B8F158E148D99
:100A1000138C12750E01D007D006D005D004D00378
:100A2000D002D001D000D0D0D082D083D0F0D0E09E
:100A300032787FE4F6D8FD75816E020A78020ABD2D
:100A4000E493A3F8E493A34003F68001F208DFF4F3
:100A50008029E493A3F85407240CC8C333C4540F6B
:100A60004420C8834004F456800146F6DFE4800B3E
:100A70000102040810204080900B5CE47E0193602A
:100A8000BCA3FF543F30E509541FFEE493A360016B
:100A90000ECF54C025E060A840B8E493A3FAE493D5
:100AA000A3F8E493A3C8C582C8CAC583CAF0A3C883
:100AB000C582C8CAC583CADFE9DEE780BE120B382B
:100AC000C280D2A1D2AFE50EB40105E4F50ED299F1
:100AD000756E40756D0D756C03756B00E4FFFEFD62
:100AE000FCAB6EAA6DA96CA86BD312091D401AE568
:100AF0006E24FFF56EE56D34FFF56DE56C34FFF5A2
:100B00006CE56B34FFF56B80D3E47F01FEFDFCAB3D
:100B10006AAA69A968A867D312091D4004C29C800B
:100B2000A5E56A2401F56AE43569F569E43568F5F7
:100B300068E43567F567808E120BE1120BC3120B68
:100B4000CD120BE8120BB3120BF6120BFA120B7C40
:100B5000120B8F120BD7120BFE020BEF0467000073
:100B60000000011600011000011100010E01010F2B
:100B700000040800000000020C080000AF88538841
:100B8000AF758D96EF5440FEEF54104E428822E52B
:100B9000C8540453C8FB75CBFF75CA3443C804421C
:100BA000C822309805C29885990F309905C2997569
:100BB000993432E4F5BB75BCF975B38153E8F84359
:100BC000E8C22275A41075F1FE75D4012275A51036
:100BD00075F27F75D59022758E08758920438840FF
:100BE000227597DE7597AD2275E34075E101227598
:100BF000E60875A8902275D10822E4F5A922439849
:030C00001022328D
:00000001FF
