:020000040000FA
:03000000020B50A0
:03002300020A5678
:03002B00020CAF15
:0300530002095748
:10080000E88FF0A4CC8BF0A42CFCE98EF0A42CFC97
:100810008AF0EDA42CFCEA8EF0A4CDA8F08BF0A415
:100820002DCC3825F0FDE98FF0A42CCD35F0FCEB74
:100830008EF0A4FEA9F0EB8FF0A4CFC5F02ECD3939
:10084000FEE43CFCEAA42DCE35F0FDE43CFC227530
:10085000F008758200EF2FFFEE33FECD33CDCC33A1
:10086000CCC58233C5829BED9AEC99E58298400C09
:10087000F582EE9BFEED9AFDEC99FC0FD5F0D6E4E7
:10088000CEFBE4CDFAE4CCF9A88222B800C1B900CD
:1008900059BA002DEC8BF084CFCECDFCE5F0CBF92E
:1008A0007818EF2FFFEE33FEED33FDEC33FCEB3326
:1008B000FB10D703994004EB99FB0FD8E5E4F9FA54
:1008C000227818EF2FFFEE33FEED33FDEC33FCC939
:1008D00033C910D7059BE99A4007EC9BFCE99AF9CC
:1008E0000FD8E0E4C9FAE4CCFB2275F010EF2FFF3B
:1008F000EE33FEED33FDCC33CCC833C810D7079BA5
:10090000EC9AE899400AED9BFDEC9AFCE899F80F07
:10091000D5F0DAE4CDFBE4CCFAE4C8F922D083D0F8
:1009200082E4937012740193700DA3A393F8740181
:1009300093F5828883E4737402936C70127403934A
:100940006D700C7404936E70067405936F60DDA374
:10095000A3A3A3A3A380CAC0E0C0F0C083C082C089
:10096000D075D000C000C001C002C003C004C005E3
:10097000C006C007751300751200751100751000D0
:10098000C2EDE526152670021525E52645257034AD
:10099000F525752610AFBDAEBE8F138E12F511F57D
:1009A000107F427E0EFDFCAB13AA12A911A81012F3
:1009B0000800E47BFF7A07F9F812088B8F2F8E2E40
:1009C0008D2D8C2CE52664104525700B753703F5AD
:1009D00036F535F534D299E526640E4525700B754C
:1009E0003702F536F535F534D299E526640C452500
:1009F000700B753701F536F535F534D299E5266477
:100A00000A4525700AF537F536F535F534D299E5FE
:100A10002664084525700B753704F536F535F53431
:100A2000D299C3E5269408E5259400500E75370841
:100A3000753600753500753400C299D007D006D0E0
:100A400005D004D003D002D001D000D0D0D082D0C5
:100A500083D0F0D0E032C0E0C0F0C083C082C0D00C
:100A600075D000C000C001C002C003C004C005C0F2
:100A700006C007309805C298859928209903020B73
:100A800035C299AC34AD35AE36AF3712091D0AB652
:100A9000000000000AC6000000010ADF000000029A
:100AA0000AF8000000030B1A000000040B2D0000E0
:100AB000000800000B2FE47B0AFAF9F8AF2FAE2EE6
:100AC000AD2DAC2C804AE47B0AFAF9F8AF2FAE2E9C
:100AD000AD2DAC2C12088BE47B0AFAF9F88031E4D6
:100AE0007B64FAF9F8AF2FAE2EAD2DAC2C12088B2B
:100AF000E47B0AFAF9F88018E47BE87A03F9F8AFA6
:100B00002FAE2EAD2DAC2C12088BE47B0AFAF9F82F
:100B100012088BEB2430F52B8003752B2CD201753A
:100B200037087536007535007534008002C2013013
:100B30000103852B99D007D006D005D004D003D06F
:100B400002D001D000D0D0D082D083D0F0D0E0321B
:100B5000787FE4F6D8FD758178020B97020C8EE45D
:100B600093A3F8E493A34003F68001F208DFF48036
:100B700029E493A3F85407240CC8C333C4540F4486
:100B800020C8834004F456800146F6DFE4800B0160
:100B900002040810204080900BDCE47E019360BCCE
:100BA000A3FF543F30E509541FFEE493A360010EF8
:100BB000CF54C025E060A840B8E493A3FAE493A31F
:100BC000F8E493A3C8C582C8CAC583CAF0A3C8C540
:100BD00082C8CAC583CADFE9DEE780BE0408000018
:100BE0000000C100013800012900012A000127018D
:100BF000012800043400000006012B00C10104306C
:100C0000000008000421000000000225001000126E
:100C10000C95120C66120C70120C9C120C59120CD2
:100C2000A3120CA7120C33120C46120C7A120CAB46
:100C3000020C84AF885388AF758D96EF5440FEEF59
:100C400054104E428822E5C8540453C8FB75CBFFAC
:100C500075CA3443C80442C822E4F5BB75BCFD53D1
:100C6000E8F843E8822275A41075F1FC75D40322DC
:100C700075A51075F27F75D59022758E087589203F
:100C80004388402275E60875A89075B81022120CAA
:100C90000FD2AF80FE7597DE7597AD2275E3407574
:100CA000E1012275D1B822E4F5A92243981022323D
:00000001FF
