:020000040000FA
:03000000020BFDF3
:03002300020B03CA
:03002B00020D6A59
:03005300020800A0
:10080000C0E0C0F0C083C082C0D075D000C000C0BE
:1008100001C002C003C004C005C006C007750B00BC
:10082000750A00750900750800C2EDAFBEE48F0FB0
:10083000F50EF50DF50CAFBD8F13F512F511F51092
:10084000AFBDAEBE8F178E16F515F514FF7E01FDF8
:10085000FCAB0FAA0EA90DA80C12099BA804A905B0
:10086000AA06AB07AFBDE4FCFDFEEB2FFFEE3AFEA0
:10087000ED39FDEC38FCE5242FF524E5233EF52386
:10088000E5223DF522E5213CF521E52615267002FD
:100890001525E52645257051853225853326AB3350
:1008A000AA32A931A830AF24AE23AD22AC21120A5E
:1008B000268F0B8E0A8D098C087524007523007510
:1008C0002200752100E47FE47E0CFDFCAB0BAA0A3C
:1008D000A909A80812099BE47BFC7A0FF9F8120A0F
:1008E000268F2F8E2E8D2D8C2CAE25AF26E4FCFD71
:1008F000AB33AA32A931A830C3120AB8700C7537CD
:1009000003F536F535F534752701E4B52614E525EC
:10091000B4070F75370275360075350075340075EC
:100920002701E4B52614E525B4060F7537017536A1
:1009300000753500753400752701E4B52614E525EA
:10094000B4050F75370075360075350075340075C0
:100950002701E4B52614E525B4040F753704753670
:1009600000753500753400752701C3E525940450E2
:100970000F7537087536007535007534007527001A
:10098000D007D006D005D004D003D002D001D000CB
:10099000D0D0D082D083D0F0D0E032E88FF0A4CC99
:1009A0008BF0A42CFCE98EF0A42CFC8AF0EDA42C96
:1009B000FCEA8EF0A4CDA8F08BF0A42DCC3825F065
:1009C000FDE98FF0A42CCD35F0FCEB8EF0A4FEA950
:1009D000F0EB8FF0A4CFC5F02ECD39FEE43CFCEA5D
:1009E000A42DCE35F0FDE43CFC2275F008758200A4
:1009F000EF2FFFEE33FECD33CDCC33CCC58233C5E4
:100A0000829BED9AEC99E58298400CF582EE9BFE74
:100A1000ED9AFDEC99FC0FD5F0D6E4CEFBE4CDFACF
:100A2000E4CCF9A88222B800C1B90059BA002DEC73
:100A30008BF084CFCECDFCE5F0CBF97818EF2FFF0B
:100A4000EE33FEED33FDEC33FCEB33FB10D70399B3
:100A50004004EB99FB0FD8E5E4F9FA227818EF2F60
:100A6000FFEE33FEED33FDEC33FCC933C910D7057F
:100A70009BE99A4007EC9BFCE99AF90FD8E0E4C99E
:100A8000FAE4CCFB2275F010EF2FFFEE33FEED33CE
:100A9000FDCC33CCC833C810D7079BEC9AE89940FB
:100AA0000AED9BFDEC9AFCE899F80FD5F0DAE4CD5D
:100AB000FBE4CCFAE4C8F922EB9FF5F0EA9E42F0A1
:100AC000E99D42F0E89C45F022D083D082E4937007
:100AD00012740193700DA3A393F8740193F58288A7
:100AE00083E4737402936C70127403936D700C74CE
:100AF00004936E70067405936F60DDA3A3A3A3A394
:100B0000A380CAC0E0C0F0C083C082C0D075D0004E
:100B1000C000C001C002C003C004C005C006C007B9
:100B2000309805C298859928209903020BE2C29952
:100B3000AC34AD35AE36AF37120AC90B63000000D6
:100B4000000B73000000010B8C000000020BA500DD
:100B50000000030BC7000000040BDA0000000800CF
:100B6000000BDCE47B0AFAF9F8AF2FAE2EAD2DAC0A
:100B70002C804AE47B0AFAF9F8AF2FAE2EAD2DACEB
:100B80002C120A26E47B0AFAF9F88031E47B64FA35
:100B9000F9F8AF2FAE2EAD2DAC2C120A26E47B0A4D
:100BA000FAF9F88018E47BE87A03F9F8AF2FAE2E53
:100BB000AD2DAC2C120A26E47B0AFAF9F8120A26AB
:100BC000EB2430F52B8003752B2CD201753708757B
:100BD00036007535007534008002C201300103858E
:100BE0002B99D007D006D005D004D003D002D00175
:100BF000D000D0D0D082D083D0F0D0E032787FE463
:100C0000F6D8FD758178020C44020CE0E493A3F859
:100C1000E493A34003F68001F208DFF48029E49313
:100C2000A3F85407240CC8C333C4540F4420C8830A
:100C30004004F456800146F6DFE4800B010204080C
:100C400010204080900C89E47E019360BCA3FF5487
:100C50003F30E509541FFEE493A360010ECF54C05A
:100C600025E060A840B8E493A3FAE493A3F8E493E2
:100C7000A3C8C582C8CAC583CAF0A3C8C582C8CAEA
:100C8000C583CADFE9DEE780BE041800000000C1AA
:100C900000013800012900012A0001270101280074
:100CA000043400000006012B00C1010430000008DC
:100CB000000421000000000225080000120D491266
:100CC0000D2B120D35120D50120D1B120D5E120D53
:100CD00062120CF5120D08120D3F120D66020D572F
:100CE000120CBCC280D2A1D2AFE527B401FBE4F55F
:100CF00027D29980F4AF885388AF758D96EF544012
:100D0000FEEF54104E428822E5C8540453C8FB75C8
:100D1000CBFF75CA3443C80442C822E4F5BB75BC96
:100D2000F975B38153E8F843E8C22275A41075F150
:100D3000FE75D4012275A51075F27F75D5902275C8
:100D40008E08758920438840227597DE7597AD22FD
:100D500075E34075E1012275E60875A8902275D10A
:0B0D60000822E4F5A92243981022327B
:00000001FF
